{
  "contractName": "EcommerceStore",
  "abi": [
    {
      "constant": true,
      "inputs": [],
      "name": "productIndex",
      "outputs": [
        {
          "name": "",
          "type": "uint256"
        }
      ],
      "payable": false,
      "stateMutability": "view",
      "type": "function"
    },
    {
      "inputs": [],
      "payable": false,
      "stateMutability": "nonpayable",
      "type": "constructor"
    },
    {
      "constant": false,
      "inputs": [
        {
          "name": "_name",
          "type": "string"
        },
        {
          "name": "_category",
          "type": "string"
        },
        {
          "name": "_imageLink",
          "type": "string"
        },
        {
          "name": "_descLink",
          "type": "string"
        },
        {
          "name": "_auctionStartTime",
          "type": "uint256"
        },
        {
          "name": "_auctionEndTime",
          "type": "uint256"
        },
        {
          "name": "_startPrice",
          "type": "uint256"
        },
        {
          "name": "_productCondition",
          "type": "uint256"
        }
      ],
      "name": "addProductToStore",
      "outputs": [],
      "payable": false,
      "stateMutability": "nonpayable",
      "type": "function"
    },
    {
      "constant": true,
      "inputs": [
        {
          "name": "_productId",
          "type": "uint256"
        }
      ],
      "name": "getProduct",
      "outputs": [
        {
          "name": "",
          "type": "uint256"
        },
        {
          "name": "",
          "type": "string"
        },
        {
          "name": "",
          "type": "string"
        },
        {
          "name": "",
          "type": "string"
        },
        {
          "name": "",
          "type": "string"
        },
        {
          "name": "",
          "type": "uint256"
        },
        {
          "name": "",
          "type": "uint256"
        },
        {
          "name": "",
          "type": "uint256"
        },
        {
          "name": "",
          "type": "uint8"
        },
        {
          "name": "",
          "type": "uint8"
        }
      ],
      "payable": false,
      "stateMutability": "view",
      "type": "function"
    },
    {
      "constant": false,
      "inputs": [
        {
          "name": "_productId",
          "type": "uint256"
        },
        {
          "name": "_bid",
          "type": "bytes32"
        }
      ],
      "name": "bid",
      "outputs": [
        {
          "name": "",
          "type": "bool"
        }
      ],
      "payable": true,
      "stateMutability": "payable",
      "type": "function"
    },
    {
      "constant": false,
      "inputs": [
        {
          "name": "_productId",
          "type": "uint256"
        },
        {
          "name": "_amount",
          "type": "string"
        },
        {
          "name": "_secret",
          "type": "string"
        }
      ],
      "name": "revealBid",
      "outputs": [],
      "payable": false,
      "stateMutability": "nonpayable",
      "type": "function"
    },
    {
      "constant": true,
      "inputs": [
        {
          "name": "_productId",
          "type": "uint256"
        }
      ],
      "name": "highestBidderInfo",
      "outputs": [
        {
          "name": "",
          "type": "address"
        },
        {
          "name": "",
          "type": "uint256"
        },
        {
          "name": "",
          "type": "uint256"
        }
      ],
      "payable": false,
      "stateMutability": "view",
      "type": "function"
    },
    {
      "constant": true,
      "inputs": [
        {
          "name": "_productId",
          "type": "uint256"
        }
      ],
      "name": "totalBids",
      "outputs": [
        {
          "name": "",
          "type": "uint256"
        }
      ],
      "payable": false,
      "stateMutability": "view",
      "type": "function"
    }
  ],
  "bytecode": "0x608060405234801561001057600080fd5b50600060028190555061213f806100286000396000f300608060405260043610610083576000357c0100000000000000000000000000000000000000000000000000000000900463ffffffff16806328e3d19014610088578063a508b955146100c9578063b9db15b41461022c578063c897d5a61461045c578063ce818ea914610487578063ea1591bb14610502578063f85f196e14610548575b600080fd5b34801561009457600080fd5b506100b360048036038101908080359060200190929190505050610601565b6040518082815260200191505060405180910390f35b3480156100d557600080fd5b5061022a600480360381019080803590602001908201803590602001908080601f0160208091040260200160405190810160405280939291908181526020018383808284378201915050505050509192919290803590602001908201803590602001908080601f0160208091040260200160405190810160405280939291908181526020018383808284378201915050505050509192919290803590602001908201803590602001908080601f0160208091040260200160405190810160405280939291908181526020018383808284378201915050505050509192919290803590602001908201803590602001908080601f016020809104026020016040519081016040528093929190818152602001838380828437820191505050505050919291929080359060200190929190803590602001909291908035906020019092919080359060200190929190505050610a28565b005b34801561023857600080fd5b5061025760048036038101908080359060200190929190505050610cfb565b604051808b8152602001806020018060200180602001806020018a815260200189815260200188815260200187600281111561028f57fe5b60ff1681526020018660018111156102a357fe5b60ff16815260200185810385528e818151815260200191508051906020019080838360005b838110156102e35780820151818401526020810190506102c8565b50505050905090810190601f1680156103105780820380516001836020036101000a031916815260200191505b5085810384528d818151815260200191508051906020019080838360005b8381101561034957808201518184015260208101905061032e565b50505050905090810190601f1680156103765780820380516001836020036101000a031916815260200191505b5085810383528c818151815260200191508051906020019080838360005b838110156103af578082015181840152602081019050610394565b50505050905090810190601f1680156103dc5780820380516001836020036101000a031916815260200191505b5085810382528b818151815260200191508051906020019080838360005b838110156104155780820151818401526020810190506103fa565b50505050905090810190601f1680156104425780820380516001836020036101000a031916815260200191505b509e50505050505050505050505050505060405180910390f35b34801561046857600080fd5b50610471611184565b6040518082815260200191505060405180910390f35b34801561049357600080fd5b506104b26004803603810190808035906020019092919050505061118a565b604051808473ffffffffffffffffffffffffffffffffffffffff1673ffffffffffffffffffffffffffffffffffffffff168152602001838152602001828152602001935050505060405180910390f35b61052e6004803603810190808035906020019092919080356000191690602001909291905050506115c6565b604051808215151515815260200191505060405180910390f35b34801561055457600080fd5b506105ff60048036038101908080359060200190929190803590602001908201803590602001908080601f0160208091040260200160405190810160405280939291908181526020018383808284378201915050505050509192919290803590602001908201803590602001908080601f0160208091040260200160405190810160405280939291908181526020018383808284378201915050505050509192919290505050611858565b005b600061060b611f91565b6000806001600086815260200190815260200160002060009054906101000a900473ffffffffffffffffffffffffffffffffffffffff1673ffffffffffffffffffffffffffffffffffffffff1673ffffffffffffffffffffffffffffffffffffffff16815260200190815260200160002060008481526020019081526020016000206101c0604051908101604052908160008201548152602001600182018054600181600116156101000203166002900480601f01602080910402602001604051908101604052809291908181526020018280546001816001161561010002031660029004801561073d5780601f106107125761010080835404028352916020019161073d565b820191906000526020600020905b81548152906001019060200180831161072057829003601f168201915b50505050508152602001600282018054600181600116156101000203166002900480601f0160208091040260200160405190810160405280929190818152602001828054600181600116156101000203166002900480156107df5780601f106107b4576101008083540402835291602001916107df565b820191906000526020600020905b8154815290600101906020018083116107c257829003601f168201915b50505050508152602001600382018054600181600116156101000203166002900480601f0160208091040260200160405190810160405280929190818152602001828054600181600116156101000203166002900480156108815780601f1061085657610100808354040283529160200191610881565b820191906000526020600020905b81548152906001019060200180831161086457829003601f168201915b50505050508152602001600482018054600181600116156101000203166002900480601f0160208091040260200160405190810160405280929190818152602001828054600181600116156101000203166002900480156109235780601f106108f857610100808354040283529160200191610923565b820191906000526020600020905b81548152906001019060200180831161090657829003601f168201915b505050505081526020016005820154815260200160068201548152602001600782015481526020016008820160009054906101000a900473ffffffffffffffffffffffffffffffffffffffff1673ffffffffffffffffffffffffffffffffffffffff1673ffffffffffffffffffffffffffffffffffffffff16815260200160098201548152602001600a8201548152602001600b8201548152602001600c820160009054906101000a900460ff1660028111156109dc57fe5b60028111156109e757fe5b8152602001600c820160019054906101000a900460ff166001811115610a0957fe5b6001811115610a1457fe5b815250509050806101600151915050919050565b610a30611f91565b8385101515610a3e57600080fd5b60016002600082825401925050819055506101c06040519081016040528060025481526020018a8152602001898152602001888152602001878152602001868152602001858152602001848152602001600073ffffffffffffffffffffffffffffffffffffffff16815260200160008152602001600081526020016000815260200160006002811115610acd57fe5b8152602001836001811115610ade57fe5b6001811115610ae957fe5b8152509050806000803373ffffffffffffffffffffffffffffffffffffffff1673ffffffffffffffffffffffffffffffffffffffff16815260200190815260200160002060006002548152602001908152602001600020600082015181600001556020820151816001019080519060200190610b6692919061202d565b506040820151816002019080519060200190610b8392919061202d565b506060820151816003019080519060200190610ba092919061202d565b506080820151816004019080519060200190610bbd92919061202d565b5060a0820151816005015560c0820151816006015560e082015181600701556101008201518160080160006101000a81548173ffffffffffffffffffffffffffffffffffffffff021916908373ffffffffffffffffffffffffffffffffffffffff160217905550610120820151816009015561014082015181600a015561016082015181600b015561018082015181600c0160006101000a81548160ff02191690836002811115610c6a57fe5b02179055506101a082015181600c0160016101000a81548160ff02191690836001811115610c9457fe5b02179055509050503360016000600254815260200190815260200160002060006101000a81548173ffffffffffffffffffffffffffffffffffffffff021916908373ffffffffffffffffffffffffffffffffffffffff160217905550505050505050505050565b60006060806060806000806000806000610d13611f91565b600080600160008f815260200190815260200160002060009054906101000a900473ffffffffffffffffffffffffffffffffffffffff1673ffffffffffffffffffffffffffffffffffffffff1673ffffffffffffffffffffffffffffffffffffffff16815260200190815260200160002060008d81526020019081526020016000206101c0604051908101604052908160008201548152602001600182018054600181600116156101000203166002900480601f016020809104026020016040519081016040528092919081815260200182805460018160011615610100020316600290048015610e455780601f10610e1a57610100808354040283529160200191610e45565b820191906000526020600020905b815481529060010190602001808311610e2857829003601f168201915b50505050508152602001600282018054600181600116156101000203166002900480601f016020809104026020016040519081016040528092919081815260200182805460018160011615610100020316600290048015610ee75780601f10610ebc57610100808354040283529160200191610ee7565b820191906000526020600020905b815481529060010190602001808311610eca57829003601f168201915b50505050508152602001600382018054600181600116156101000203166002900480601f016020809104026020016040519081016040528092919081815260200182805460018160011615610100020316600290048015610f895780601f10610f5e57610100808354040283529160200191610f89565b820191906000526020600020905b815481529060010190602001808311610f6c57829003601f168201915b50505050508152602001600482018054600181600116156101000203166002900480601f01602080910402602001604051908101604052809291908181526020018280546001816001161561010002031660029004801561102b5780601f106110005761010080835404028352916020019161102b565b820191906000526020600020905b81548152906001019060200180831161100e57829003601f168201915b505050505081526020016005820154815260200160068201548152602001600782015481526020016008820160009054906101000a900473ffffffffffffffffffffffffffffffffffffffff1673ffffffffffffffffffffffffffffffffffffffff1673ffffffffffffffffffffffffffffffffffffffff16815260200160098201548152602001600a8201548152602001600b8201548152602001600c820160009054906101000a900460ff1660028111156110e457fe5b60028111156110ef57fe5b8152602001600c820160019054906101000a900460ff16600181111561111157fe5b600181111561111c57fe5b815250509050806000015181602001518260400151836060015184608001518560a001518660c001518760e00151886101800151896101a001518898508797508696508595509a509a509a509a509a509a509a509a509a509a50509193959799509193959799565b60025481565b6000806000611197611f91565b6000806001600088815260200190815260200160002060009054906101000a900473ffffffffffffffffffffffffffffffffffffffff1673ffffffffffffffffffffffffffffffffffffffff1673ffffffffffffffffffffffffffffffffffffffff16815260200190815260200160002060008681526020019081526020016000206101c0604051908101604052908160008201548152602001600182018054600181600116156101000203166002900480601f0160208091040260200160405190810160405280929190818152602001828054600181600116156101000203166002900480156112c95780601f1061129e576101008083540402835291602001916112c9565b820191906000526020600020905b8154815290600101906020018083116112ac57829003601f168201915b50505050508152602001600282018054600181600116156101000203166002900480601f01602080910402602001604051908101604052809291908181526020018280546001816001161561010002031660029004801561136b5780601f106113405761010080835404028352916020019161136b565b820191906000526020600020905b81548152906001019060200180831161134e57829003601f168201915b50505050508152602001600382018054600181600116156101000203166002900480601f01602080910402602001604051908101604052809291908181526020018280546001816001161561010002031660029004801561140d5780601f106113e25761010080835404028352916020019161140d565b820191906000526020600020905b8154815290600101906020018083116113f057829003601f168201915b50505050508152602001600482018054600181600116156101000203166002900480601f0160208091040260200160405190810160405280929190818152602001828054600181600116156101000203166002900480156114af5780601f10611484576101008083540402835291602001916114af565b820191906000526020600020905b81548152906001019060200180831161149257829003601f168201915b505050505081526020016005820154815260200160068201548152602001600782015481526020016008820160009054906101000a900473ffffffffffffffffffffffffffffffffffffffff1673ffffffffffffffffffffffffffffffffffffffff1673ffffffffffffffffffffffffffffffffffffffff16815260200160098201548152602001600a8201548152602001600b8201548152602001600c820160009054906101000a900460ff16600281111561156857fe5b600281111561157357fe5b8152602001600c820160019054906101000a900460ff16600181111561159557fe5b60018111156115a057fe5b815250509050806101000151816101200151826101400151935093509350509193909250565b6000806000806001600087815260200190815260200160002060009054906101000a900473ffffffffffffffffffffffffffffffffffffffff1673ffffffffffffffffffffffffffffffffffffffff1673ffffffffffffffffffffffffffffffffffffffff168152602001908152602001600020600085815260200190815260200160002090508060050154421015151561166057600080fd5b8060060154421115151561167357600080fd5b80600701543411151561168557600080fd5b600081600d0160003373ffffffffffffffffffffffffffffffffffffffff1673ffffffffffffffffffffffffffffffffffffffff1681526020019081526020016000206000856000191660001916815260200190815260200160002060000160009054906101000a900473ffffffffffffffffffffffffffffffffffffffff1673ffffffffffffffffffffffffffffffffffffffff1614151561172757600080fd5b6080604051908101604052803373ffffffffffffffffffffffffffffffffffffffff1681526020018581526020013481526020016000151581525081600d0160003373ffffffffffffffffffffffffffffffffffffffff1673ffffffffffffffffffffffffffffffffffffffff1681526020019081526020016000206000856000191660001916815260200190815260200160002060008201518160000160006101000a81548173ffffffffffffffffffffffffffffffffffffffff021916908373ffffffffffffffffffffffffffffffffffffffff160217905550602082015181600101556040820151816002015560608201518160030160006101000a81548160ff021916908315150217905550905050600181600b0160008282540192505081905550600191505092915050565b6000806118636120ad565b600080600080600160008b815260200190815260200160002060009054906101000a900473ffffffffffffffffffffffffffffffffffffffff1673ffffffffffffffffffffffffffffffffffffffff1673ffffffffffffffffffffffffffffffffffffffff168152602001908152602001600020600089815260200190815260200160002094508460060154421115156118fc57600080fd5b86866040518083805190602001908083835b602083101515611933578051825260208201915060208101905060208303925061190e565b6001836020036101000a03801982511681845116808217855250505050505090500182805190602001908083835b6020831015156119865780518252602082019150602081019050602083039250611961565b6001836020036101000a038019825116818451168082178552505050505050905001925050506040518091039020935084600d0160003373ffffffffffffffffffffffffffffffffffffffff1673ffffffffffffffffffffffffffffffffffffffff16815260200190815260200160002060008560001916600019168152602001908152602001600020608060405190810160405290816000820160009054906101000a900473ffffffffffffffffffffffffffffffffffffffff1673ffffffffffffffffffffffffffffffffffffffff1673ffffffffffffffffffffffffffffffffffffffff16815260200160018201548152602001600282015481526020016003820160009054906101000a900460ff16151515158152505092506000836000015173ffffffffffffffffffffffffffffffffffffffff16111515611acc57600080fd5b6000151583606001511515141515611ae357600080fd5b611aec87611d87565b90508083604001511015611b065782604001519150611cb6565b60008560080160009054906101000a900473ffffffffffffffffffffffffffffffffffffffff1673ffffffffffffffffffffffffffffffffffffffff161415611bb057338560080160006101000a81548173ffffffffffffffffffffffffffffffffffffffff021916908373ffffffffffffffffffffffffffffffffffffffff160217905550808560090181905550846007015485600a0181905550808360400151039150611cb5565b8460090154811115611c9257846009015485600a01819055508460080160009054906101000a900473ffffffffffffffffffffffffffffffffffffffff1673ffffffffffffffffffffffffffffffffffffffff166108fc86600901549081150290604051600060405180830381858888f19350505050158015611c37573d6000803e3d6000fd5b50338560080160006101000a81548173ffffffffffffffffffffffffffffffffffffffff021916908373ffffffffffffffffffffffffffffffffffffffff160217905550808560090181905550808360400151039150611cb4565b84600a0154811115611caf578085600a0181905550809150611cb3565b8091505b5b5b5b600185600d0160003373ffffffffffffffffffffffffffffffffffffffff1673ffffffffffffffffffffffffffffffffffffffff1681526020019081526020016000206000866000191660001916815260200190815260200160002060030160006101000a81548160ff0219169083151502179055506000821115611d7d573373ffffffffffffffffffffffffffffffffffffffff166108fc839081150290604051600060405180830381858888f19350505050158015611d7b573d6000803e3d6000fd5b505b5050505050505050565b6000606060008084925060009150600090505b8251811015611f865760307f0100000000000000000000000000000000000000000000000000000000000000028382815181101515611dd557fe5b9060200101517f010000000000000000000000000000000000000000000000000000000000000090047f0100000000000000000000000000000000000000000000000000000000000000027effffffffffffffffffffffffffffffffffffffffffffffffffffffffffffff191610158015611eed575060397f0100000000000000000000000000000000000000000000000000000000000000028382815181101515611e7d57fe5b9060200101517f010000000000000000000000000000000000000000000000000000000000000090047f0100000000000000000000000000000000000000000000000000000000000000027effffffffffffffffffffffffffffffffffffffffffffffffffffffffffffff191611155b15611f795760308382815181101515611f0257fe5b9060200101517f010000000000000000000000000000000000000000000000000000000000000090047f0100000000000000000000000000000000000000000000000000000000000000027f0100000000000000000000000000000000000000000000000000000000000000900403600a83020191505b8080600101915050611d9a565b819350505050919050565b6101c0604051908101604052806000815260200160608152602001606081526020016060815260200160608152602001600081526020016000815260200160008152602001600073ffffffffffffffffffffffffffffffffffffffff1681526020016000815260200160008152602001600081526020016000600281111561201557fe5b81526020016000600181111561202757fe5b81525090565b828054600181600116156101000203166002900490600052602060002090601f016020900481019282601f1061206e57805160ff191683800117855561209c565b8280016001018555821561209c579182015b8281111561209b578251825591602001919060010190612080565b5b5090506120a991906120ee565b5090565b608060405190810160405280600073ffffffffffffffffffffffffffffffffffffffff16815260200160008152602001600081526020016000151581525090565b61211091905b8082111561210c5760008160009055506001016120f4565b5090565b905600a165627a7a72305820bc2d7d80c0c498797511ce69e74c7a53b47b35fc9cb70a7e83224f1256aae3490029",
  "source": "pragma solidity ^0.4.13;\n\ncontract EcommerceStore {\n  enum ProductStatus { Open, Sold, Unsold }\n  enum ProductCondition { New, Used }\n\n  struct Bid {\n    address bidder;\n    uint productId;\n    uint value;\n    bool revealed;\n  }\n  \n  struct Product {\n    uint id;\n    string name;\n    string category;\n    string imageLink;\n    string descLink;\n    uint auctionStartTime;\n    uint auctionEndTime;\n    uint startPrice;\n    address highestBidder;\n    uint highestBid;\n    uint secondHighestBid;\n    uint totalBids;\n    ProductStatus status;\n    ProductCondition condition;\n    mapping (address => mapping (bytes32 => Bid)) bids;\n  }  \n  \n  mapping (address => mapping(uint => Product)) stores;\n  mapping (uint => address) productIdInStore;  \n  uint public productIndex;\n\n  function EcommerceStore() public {\n    productIndex = 0;\n  }\n\n  function addProductToStore(string _name, string _category, string _imageLink, \n    string _descLink, uint _auctionStartTime,\n    uint _auctionEndTime, uint _startPrice, uint _productCondition) public {\n    require (_auctionStartTime < _auctionEndTime);\n    productIndex += 1;\n    Product memory product = Product(productIndex, _name, _category, _imageLink, _descLink, _auctionStartTime, _auctionEndTime,\n                     _startPrice, 0, 0, 0, 0, ProductStatus.Open, ProductCondition(_productCondition));\n\n    stores[msg.sender][productIndex] = product;\n    productIdInStore[productIndex] = msg.sender;    \n  }  \n  \n  function getProduct(uint _productId) view public returns (uint, string, string, string, string, uint, uint, uint, ProductStatus, ProductCondition) {\n    Product memory product = stores[productIdInStore[_productId]][_productId];\n    return (product.id, product.name, product.category, product.imageLink, product.descLink, product.auctionStartTime,\n        product.auctionEndTime, product.startPrice, product.status, product.condition);\n  }   \n  \n  function bid(uint _productId, bytes32 _bid) payable public returns (bool) {\n    Product storage product = stores[productIdInStore[_productId]][_productId];    \n    require (now >= product.auctionStartTime); \n    require (now <= product.auctionEndTime);\n    require (msg.value > product.startPrice);\n    require (product.bids[msg.sender][_bid].bidder == 0);\n\n    product.bids[msg.sender][_bid] = Bid(msg.sender, _productId, msg.value, false);\n    product.totalBids += 1;\n    return true;\n  }  \n\n  function stringToUint(string s) pure private returns (uint) {\n    bytes memory b = bytes(s);\n    uint result = 0;\n\n    for (uint i = 0; i < b.length; i++) {\n      if (b[i] >= 48 && b[i] <= 57) {\n        result = result * 10 + (uint(b[i]) - 48);\n      }\n    }\n    return result;\n  }  \n  \n  function revealBid(uint _productId, string _amount, string _secret) public {\n    Product storage product = stores[productIdInStore[_productId]][_productId];\n    require (now > product.auctionEndTime);\n    bytes32 sealedBid = sha3(_amount, _secret);\n    Bid memory bidInfo = product.bids[msg.sender][sealedBid];\n\n    require (bidInfo.bidder > 0);\n    require (bidInfo.revealed == false);\n\n    uint refund;\n    uint amount = stringToUint(_amount);\n\n    if(bidInfo.value < amount) {\n      refund = bidInfo.value;\n    } else {\n      if (address(product.highestBidder) == 0) {\n        product.highestBidder = msg.sender;\n        product.highestBid = amount;\n        product.secondHighestBid = product.startPrice;\n        refund = bidInfo.value - amount;\n      } else {\n        if (amount > product.highestBid) {\n          product.secondHighestBid = product.highestBid;\n          product.highestBidder.transfer(product.highestBid);\n          product.highestBidder = msg.sender;\n          product.highestBid = amount;\n          refund = bidInfo.value - amount;\n        } else if (amount > product.secondHighestBid) {\n          product.secondHighestBid = amount;\n          refund = amount;\n        } else {\n          refund = amount;\n        }\n      }\n    }\n\n    product.bids[msg.sender][sealedBid].revealed = true;\n\n    if (refund > 0) {\n      msg.sender.transfer(refund);\n    }\n  }      \n  \n  function highestBidderInfo(uint _productId) view public returns (address, uint, uint) {\n    Product memory product = stores[productIdInStore[_productId]][_productId];\n    return (product.highestBidder, product.highestBid, product.secondHighestBid);\n  }\n\n  function totalBids(uint _productId) view public returns (uint) {\n    Product memory product = stores[productIdInStore[_productId]][_productId];\n    return product.totalBids;\n  }\n  \n}",
  "sourcePath": "/blockpro/repo/sprint-5/contracts/EcommerceStore.sol",
  "compiler": {
    "name": "solc",
    "version": "0.4.24+commit.e67f0147.Emscripten.clang"
  },
  "schemaVersion": "2.0.1",
  "updatedAt": "2019-01-17T06:27:20.816Z"
}