{
  "contractName": "EcommerceStore",
  "abi": [
    {
      "constant": true,
      "inputs": [],
      "name": "productIndex",
      "outputs": [
        {
          "name": "",
          "type": "uint256"
        }
      ],
      "payable": false,
      "stateMutability": "view",
      "type": "function"
    },
    {
      "inputs": [],
      "payable": false,
      "stateMutability": "nonpayable",
      "type": "constructor"
    },
    {
      "constant": false,
      "inputs": [
        {
          "name": "_name",
          "type": "string"
        },
        {
          "name": "_category",
          "type": "string"
        },
        {
          "name": "_imageLink",
          "type": "string"
        },
        {
          "name": "_descLink",
          "type": "string"
        },
        {
          "name": "_auctionStartTime",
          "type": "uint256"
        },
        {
          "name": "_auctionEndTime",
          "type": "uint256"
        },
        {
          "name": "_startPrice",
          "type": "uint256"
        },
        {
          "name": "_productCondition",
          "type": "uint256"
        }
      ],
      "name": "addProductToStore",
      "outputs": [],
      "payable": false,
      "stateMutability": "nonpayable",
      "type": "function"
    },
    {
      "constant": true,
      "inputs": [
        {
          "name": "_productId",
          "type": "uint256"
        }
      ],
      "name": "getProduct",
      "outputs": [
        {
          "name": "",
          "type": "uint256"
        },
        {
          "name": "",
          "type": "string"
        },
        {
          "name": "",
          "type": "string"
        },
        {
          "name": "",
          "type": "string"
        },
        {
          "name": "",
          "type": "string"
        },
        {
          "name": "",
          "type": "uint256"
        },
        {
          "name": "",
          "type": "uint256"
        },
        {
          "name": "",
          "type": "uint256"
        },
        {
          "name": "",
          "type": "uint8"
        },
        {
          "name": "",
          "type": "uint8"
        }
      ],
      "payable": false,
      "stateMutability": "view",
      "type": "function"
    },
    {
      "constant": false,
      "inputs": [
        {
          "name": "_productId",
          "type": "uint256"
        },
        {
          "name": "_bid",
          "type": "bytes32"
        }
      ],
      "name": "bid",
      "outputs": [
        {
          "name": "",
          "type": "bool"
        }
      ],
      "payable": true,
      "stateMutability": "payable",
      "type": "function"
    },
    {
      "constant": false,
      "inputs": [
        {
          "name": "_productId",
          "type": "uint256"
        },
        {
          "name": "_amount",
          "type": "string"
        },
        {
          "name": "_secret",
          "type": "string"
        }
      ],
      "name": "revealBid",
      "outputs": [],
      "payable": false,
      "stateMutability": "nonpayable",
      "type": "function"
    },
    {
      "constant": true,
      "inputs": [
        {
          "name": "_productId",
          "type": "uint256"
        }
      ],
      "name": "highestBidderInfo",
      "outputs": [
        {
          "name": "",
          "type": "address"
        },
        {
          "name": "",
          "type": "uint256"
        },
        {
          "name": "",
          "type": "uint256"
        }
      ],
      "payable": false,
      "stateMutability": "view",
      "type": "function"
    },
    {
      "constant": true,
      "inputs": [
        {
          "name": "_productId",
          "type": "uint256"
        }
      ],
      "name": "totalBids",
      "outputs": [
        {
          "name": "",
          "type": "uint256"
        }
      ],
      "payable": false,
      "stateMutability": "view",
      "type": "function"
    },
    {
      "constant": false,
      "inputs": [
        {
          "name": "_productId",
          "type": "uint256"
        }
      ],
      "name": "finalizeAuction",
      "outputs": [],
      "payable": false,
      "stateMutability": "nonpayable",
      "type": "function"
    },
    {
      "constant": false,
      "inputs": [
        {
          "name": "_productId",
          "type": "uint256"
        }
      ],
      "name": "releaseAmountToSeller",
      "outputs": [],
      "payable": false,
      "stateMutability": "nonpayable",
      "type": "function"
    },
    {
      "constant": false,
      "inputs": [
        {
          "name": "_productId",
          "type": "uint256"
        }
      ],
      "name": "refundAmountToBuyer",
      "outputs": [],
      "payable": false,
      "stateMutability": "nonpayable",
      "type": "function"
    },
    {
      "constant": true,
      "inputs": [
        {
          "name": "_productId",
          "type": "uint256"
        }
      ],
      "name": "escrowInfo",
      "outputs": [
        {
          "name": "",
          "type": "address"
        },
        {
          "name": "",
          "type": "address"
        },
        {
          "name": "",
          "type": "address"
        },
        {
          "name": "",
          "type": "bool"
        },
        {
          "name": "",
          "type": "uint256"
        },
        {
          "name": "",
          "type": "uint256"
        }
      ],
      "payable": false,
      "stateMutability": "view",
      "type": "function"
    }
  ],
  "bytecode": "0x608060405234801561001057600080fd5b506000600281905550613553806100286000396000f3006080604052600436106100af576000357c0100000000000000000000000000000000000000000000000000000000900463ffffffff16806328e3d190146100b457806383560525146100f55780639a3a7c69146101e1578063a508b9551461020e578063b9db15b414610371578063c897d5a6146105a1578063cc352db7146105cc578063ce818ea9146105f9578063e808386314610674578063ea1591bb146106a1578063f85f196e146106e7575b600080fd5b3480156100c057600080fd5b506100df600480360381019080803590602001909291905050506107a0565b6040518082815260200191505060405180910390f35b34801561010157600080fd5b5061012060048036038101908080359060200190929190505050610bc7565b604051808773ffffffffffffffffffffffffffffffffffffffff1673ffffffffffffffffffffffffffffffffffffffff1681526020018673ffffffffffffffffffffffffffffffffffffffff1673ffffffffffffffffffffffffffffffffffffffff1681526020018573ffffffffffffffffffffffffffffffffffffffff1673ffffffffffffffffffffffffffffffffffffffff16815260200184151515158152602001838152602001828152602001965050505050505060405180910390f35b3480156101ed57600080fd5b5061020c60048036038101908080359060200190929190505050610ce9565b005b34801561021a57600080fd5b5061036f600480360381019080803590602001908201803590602001908080601f0160208091040260200160405190810160405280939291908181526020018383808284378201915050505050509192919290803590602001908201803590602001908080601f0160208091040260200160405190810160405280939291908181526020018383808284378201915050505050509192919290803590602001908201803590602001908080601f0160208091040260200160405190810160405280939291908181526020018383808284378201915050505050509192919290803590602001908201803590602001908080601f016020809104026020016040519081016040528093929190818152602001838380828437820191505050505050919291929080359060200190929190803590602001909291908035906020019092919080359060200190929190505050610dd2565b005b34801561037d57600080fd5b5061039c600480360381019080803590602001909291905050506110a5565b604051808b8152602001806020018060200180602001806020018a81526020018981526020018881526020018760028111156103d457fe5b60ff1681526020018660018111156103e857fe5b60ff16815260200185810385528e818151815260200191508051906020019080838360005b8381101561042857808201518184015260208101905061040d565b50505050905090810190601f1680156104555780820380516001836020036101000a031916815260200191505b5085810384528d818151815260200191508051906020019080838360005b8381101561048e578082015181840152602081019050610473565b50505050905090810190601f1680156104bb5780820380516001836020036101000a031916815260200191505b5085810383528c818151815260200191508051906020019080838360005b838110156104f45780820151818401526020810190506104d9565b50505050905090810190601f1680156105215780820380516001836020036101000a031916815260200191505b5085810382528b818151815260200191508051906020019080838360005b8381101561055a57808201518184015260208101905061053f565b50505050905090810190601f1680156105875780820380516001836020036101000a031916815260200191505b509e50505050505050505050505050505060405180910390f35b3480156105ad57600080fd5b506105b661152e565b6040518082815260200191505060405180910390f35b3480156105d857600080fd5b506105f760048036038101908080359060200190929190505050611534565b005b34801561060557600080fd5b506106246004803603810190808035906020019092919050505061161d565b604051808473ffffffffffffffffffffffffffffffffffffffff1673ffffffffffffffffffffffffffffffffffffffff168152602001838152602001828152602001935050505060405180910390f35b34801561068057600080fd5b5061069f60048036038101908080359060200190929190505050611a59565b005b6106cd600480360381019080803590602001909291908035600019169060200190929190505050611e51565b604051808215151515815260200191505060405180910390f35b3480156106f357600080fd5b5061079e60048036038101908080359060200190929190803590602001908201803590602001908080601f0160208091040260200160405190810160405280939291908181526020018383808284378201915050505050509192919290803590602001908201803590602001908080601f01602080910402602001604051908101604052809392919081815260200183838082843782019150505050505091929192905050506120e3565b005b60006107aa61281c565b6000806001600086815260200190815260200160002060009054906101000a900473ffffffffffffffffffffffffffffffffffffffff1673ffffffffffffffffffffffffffffffffffffffff1673ffffffffffffffffffffffffffffffffffffffff16815260200190815260200160002060008481526020019081526020016000206101c0604051908101604052908160008201548152602001600182018054600181600116156101000203166002900480601f0160208091040260200160405190810160405280929190818152602001828054600181600116156101000203166002900480156108dc5780601f106108b1576101008083540402835291602001916108dc565b820191906000526020600020905b8154815290600101906020018083116108bf57829003601f168201915b50505050508152602001600282018054600181600116156101000203166002900480601f01602080910402602001604051908101604052809291908181526020018280546001816001161561010002031660029004801561097e5780601f106109535761010080835404028352916020019161097e565b820191906000526020600020905b81548152906001019060200180831161096157829003601f168201915b50505050508152602001600382018054600181600116156101000203166002900480601f016020809104026020016040519081016040528092919081815260200182805460018160011615610100020316600290048015610a205780601f106109f557610100808354040283529160200191610a20565b820191906000526020600020905b815481529060010190602001808311610a0357829003601f168201915b50505050508152602001600482018054600181600116156101000203166002900480601f016020809104026020016040519081016040528092919081815260200182805460018160011615610100020316600290048015610ac25780601f10610a9757610100808354040283529160200191610ac2565b820191906000526020600020905b815481529060010190602001808311610aa557829003601f168201915b505050505081526020016005820154815260200160068201548152602001600782015481526020016008820160009054906101000a900473ffffffffffffffffffffffffffffffffffffffff1673ffffffffffffffffffffffffffffffffffffffff1673ffffffffffffffffffffffffffffffffffffffff16815260200160098201548152602001600a8201548152602001600b8201548152602001600c820160009054906101000a900460ff166002811115610b7b57fe5b6002811115610b8657fe5b8152602001600c820160019054906101000a900460ff166001811115610ba857fe5b6001811115610bb357fe5b815250509050806101600151915050919050565b6000806000806000806003600088815260200190815260200160002060009054906101000a900473ffffffffffffffffffffffffffffffffffffffff1673ffffffffffffffffffffffffffffffffffffffff1663f3d259046040518163ffffffff167c010000000000000000000000000000000000000000000000000000000002815260040160c060405180830381600087803b158015610c6757600080fd5b505af1158015610c7b573d6000803e3d6000fd5b505050506040513d60c0811015610c9157600080fd5b8101908080519060200190929190805190602001909291908051906020019092919080519060200190929190805190602001909291908051906020019092919050505095509550955095509550955091939550919395565b6003600082815260200190815260200160002060009054906101000a900473ffffffffffffffffffffffffffffffffffffffff1673ffffffffffffffffffffffffffffffffffffffff166358aad10b336040518263ffffffff167c0100000000000000000000000000000000000000000000000000000000028152600401808273ffffffffffffffffffffffffffffffffffffffff1673ffffffffffffffffffffffffffffffffffffffff168152602001915050600060405180830381600087803b158015610db757600080fd5b505af1158015610dcb573d6000803e3d6000fd5b5050505050565b610dda61281c565b8385101515610de857600080fd5b60016002600082825401925050819055506101c06040519081016040528060025481526020018a8152602001898152602001888152602001878152602001868152602001858152602001848152602001600073ffffffffffffffffffffffffffffffffffffffff16815260200160008152602001600081526020016000815260200160006002811115610e7757fe5b8152602001836001811115610e8857fe5b6001811115610e9357fe5b8152509050806000803373ffffffffffffffffffffffffffffffffffffffff1673ffffffffffffffffffffffffffffffffffffffff16815260200190815260200160002060006002548152602001908152602001600020600082015181600001556020820151816001019080519060200190610f109291906128b8565b506040820151816002019080519060200190610f2d9291906128b8565b506060820151816003019080519060200190610f4a9291906128b8565b506080820151816004019080519060200190610f679291906128b8565b5060a0820151816005015560c0820151816006015560e082015181600701556101008201518160080160006101000a81548173ffffffffffffffffffffffffffffffffffffffff021916908373ffffffffffffffffffffffffffffffffffffffff160217905550610120820151816009015561014082015181600a015561016082015181600b015561018082015181600c0160006101000a81548160ff0219169083600281111561101457fe5b02179055506101a082015181600c0160016101000a81548160ff0219169083600181111561103e57fe5b02179055509050503360016000600254815260200190815260200160002060006101000a81548173ffffffffffffffffffffffffffffffffffffffff021916908373ffffffffffffffffffffffffffffffffffffffff160217905550505050505050505050565b600060608060608060008060008060006110bd61281c565b600080600160008f815260200190815260200160002060009054906101000a900473ffffffffffffffffffffffffffffffffffffffff1673ffffffffffffffffffffffffffffffffffffffff1673ffffffffffffffffffffffffffffffffffffffff16815260200190815260200160002060008d81526020019081526020016000206101c0604051908101604052908160008201548152602001600182018054600181600116156101000203166002900480601f0160208091040260200160405190810160405280929190818152602001828054600181600116156101000203166002900480156111ef5780601f106111c4576101008083540402835291602001916111ef565b820191906000526020600020905b8154815290600101906020018083116111d257829003601f168201915b50505050508152602001600282018054600181600116156101000203166002900480601f0160208091040260200160405190810160405280929190818152602001828054600181600116156101000203166002900480156112915780601f1061126657610100808354040283529160200191611291565b820191906000526020600020905b81548152906001019060200180831161127457829003601f168201915b50505050508152602001600382018054600181600116156101000203166002900480601f0160208091040260200160405190810160405280929190818152602001828054600181600116156101000203166002900480156113335780601f1061130857610100808354040283529160200191611333565b820191906000526020600020905b81548152906001019060200180831161131657829003601f168201915b50505050508152602001600482018054600181600116156101000203166002900480601f0160208091040260200160405190810160405280929190818152602001828054600181600116156101000203166002900480156113d55780601f106113aa576101008083540402835291602001916113d5565b820191906000526020600020905b8154815290600101906020018083116113b857829003601f168201915b505050505081526020016005820154815260200160068201548152602001600782015481526020016008820160009054906101000a900473ffffffffffffffffffffffffffffffffffffffff1673ffffffffffffffffffffffffffffffffffffffff1673ffffffffffffffffffffffffffffffffffffffff16815260200160098201548152602001600a8201548152602001600b8201548152602001600c820160009054906101000a900460ff16600281111561148e57fe5b600281111561149957fe5b8152602001600c820160019054906101000a900460ff1660018111156114bb57fe5b60018111156114c657fe5b815250509050806000015181602001518260400151836060015184608001518560a001518660c001518760e00151886101800151896101a001518898508797508696508595509a509a509a509a509a509a509a509a509a509a50509193959799509193959799565b60025481565b6003600082815260200190815260200160002060009054906101000a900473ffffffffffffffffffffffffffffffffffffffff1673ffffffffffffffffffffffffffffffffffffffff1663a97d1b10336040518263ffffffff167c0100000000000000000000000000000000000000000000000000000000028152600401808273ffffffffffffffffffffffffffffffffffffffff1673ffffffffffffffffffffffffffffffffffffffff168152602001915050600060405180830381600087803b15801561160257600080fd5b505af1158015611616573d6000803e3d6000fd5b5050505050565b600080600061162a61281c565b6000806001600088815260200190815260200160002060009054906101000a900473ffffffffffffffffffffffffffffffffffffffff1673ffffffffffffffffffffffffffffffffffffffff1673ffffffffffffffffffffffffffffffffffffffff16815260200190815260200160002060008681526020019081526020016000206101c0604051908101604052908160008201548152602001600182018054600181600116156101000203166002900480601f01602080910402602001604051908101604052809291908181526020018280546001816001161561010002031660029004801561175c5780601f106117315761010080835404028352916020019161175c565b820191906000526020600020905b81548152906001019060200180831161173f57829003601f168201915b50505050508152602001600282018054600181600116156101000203166002900480601f0160208091040260200160405190810160405280929190818152602001828054600181600116156101000203166002900480156117fe5780601f106117d3576101008083540402835291602001916117fe565b820191906000526020600020905b8154815290600101906020018083116117e157829003601f168201915b50505050508152602001600382018054600181600116156101000203166002900480601f0160208091040260200160405190810160405280929190818152602001828054600181600116156101000203166002900480156118a05780601f10611875576101008083540402835291602001916118a0565b820191906000526020600020905b81548152906001019060200180831161188357829003601f168201915b50505050508152602001600482018054600181600116156101000203166002900480601f0160208091040260200160405190810160405280929190818152602001828054600181600116156101000203166002900480156119425780601f1061191757610100808354040283529160200191611942565b820191906000526020600020905b81548152906001019060200180831161192557829003601f168201915b505050505081526020016005820154815260200160068201548152602001600782015481526020016008820160009054906101000a900473ffffffffffffffffffffffffffffffffffffffff1673ffffffffffffffffffffffffffffffffffffffff1673ffffffffffffffffffffffffffffffffffffffff16815260200160098201548152602001600a8201548152602001600b8201548152602001600c820160009054906101000a900460ff1660028111156119fb57fe5b6002811115611a0657fe5b8152602001600c820160019054906101000a900460ff166001811115611a2857fe5b6001811115611a3357fe5b815250509050806101000151816101200151826101400151935093509350509193909250565b60008060008060006001600087815260200190815260200160002060009054906101000a900473ffffffffffffffffffffffffffffffffffffffff1673ffffffffffffffffffffffffffffffffffffffff1673ffffffffffffffffffffffffffffffffffffffff16815260200190815260200160002060008581526020019081526020016000209250826006015442111515611af457600080fd5b60006002811115611b0157fe5b83600c0160009054906101000a900460ff166002811115611b1e57fe5b141515611b2a57600080fd5b3373ffffffffffffffffffffffffffffffffffffffff168360080160009054906101000a900473ffffffffffffffffffffffffffffffffffffffff1673ffffffffffffffffffffffffffffffffffffffff1614151515611b8957600080fd5b3373ffffffffffffffffffffffffffffffffffffffff166001600086815260200190815260200160002060009054906101000a900473ffffffffffffffffffffffffffffffffffffffff1673ffffffffffffffffffffffffffffffffffffffff1614151515611bf757600080fd5b600083600b01541415611c2f57600283600c0160006101000a81548160ff02191690836002811115611c2557fe5b0217905550611e4b565b82600a0154848460080160009054906101000a900473ffffffffffffffffffffffffffffffffffffffff166001600088815260200190815260200160002060009054906101000a900473ffffffffffffffffffffffffffffffffffffffff1633611c97612938565b808581526020018473ffffffffffffffffffffffffffffffffffffffff1673ffffffffffffffffffffffffffffffffffffffff1681526020018373ffffffffffffffffffffffffffffffffffffffff1673ffffffffffffffffffffffffffffffffffffffff1681526020018273ffffffffffffffffffffffffffffffffffffffff1673ffffffffffffffffffffffffffffffffffffffff1681526020019450505050506040518091039082f080158015611d55573d6000803e3d6000fd5b5090509150816003600086815260200190815260200160002060006101000a81548173ffffffffffffffffffffffffffffffffffffffff021916908373ffffffffffffffffffffffffffffffffffffffff160217905550600183600c0160006101000a81548160ff02191690836002811115611dcd57fe5b021790555082600a015483600901540390508260080160009054906101000a900473ffffffffffffffffffffffffffffffffffffffff1673ffffffffffffffffffffffffffffffffffffffff166108fc829081150290604051600060405180830381858888f19350505050158015611e49573d6000803e3d6000fd5b505b50505050565b6000806000806001600087815260200190815260200160002060009054906101000a900473ffffffffffffffffffffffffffffffffffffffff1673ffffffffffffffffffffffffffffffffffffffff1673ffffffffffffffffffffffffffffffffffffffff1681526020019081526020016000206000858152602001908152602001600020905080600501544210151515611eeb57600080fd5b80600601544211151515611efe57600080fd5b806007015434111515611f1057600080fd5b600081600d0160003373ffffffffffffffffffffffffffffffffffffffff1673ffffffffffffffffffffffffffffffffffffffff1681526020019081526020016000206000856000191660001916815260200190815260200160002060000160009054906101000a900473ffffffffffffffffffffffffffffffffffffffff1673ffffffffffffffffffffffffffffffffffffffff16141515611fb257600080fd5b6080604051908101604052803373ffffffffffffffffffffffffffffffffffffffff1681526020018581526020013481526020016000151581525081600d0160003373ffffffffffffffffffffffffffffffffffffffff1673ffffffffffffffffffffffffffffffffffffffff1681526020019081526020016000206000856000191660001916815260200190815260200160002060008201518160000160006101000a81548173ffffffffffffffffffffffffffffffffffffffff021916908373ffffffffffffffffffffffffffffffffffffffff160217905550602082015181600101556040820151816002015560608201518160030160006101000a81548160ff021916908315150217905550905050600181600b0160008282540192505081905550600191505092915050565b6000806120ee612948565b600080600080600160008b815260200190815260200160002060009054906101000a900473ffffffffffffffffffffffffffffffffffffffff1673ffffffffffffffffffffffffffffffffffffffff1673ffffffffffffffffffffffffffffffffffffffff1681526020019081526020016000206000898152602001908152602001600020945084600601544211151561218757600080fd5b86866040518083805190602001908083835b6020831015156121be5780518252602082019150602081019050602083039250612199565b6001836020036101000a03801982511681845116808217855250505050505090500182805190602001908083835b60208310151561221157805182526020820191506020810190506020830392506121ec565b6001836020036101000a038019825116818451168082178552505050505050905001925050506040518091039020935084600d0160003373ffffffffffffffffffffffffffffffffffffffff1673ffffffffffffffffffffffffffffffffffffffff16815260200190815260200160002060008560001916600019168152602001908152602001600020608060405190810160405290816000820160009054906101000a900473ffffffffffffffffffffffffffffffffffffffff1673ffffffffffffffffffffffffffffffffffffffff1673ffffffffffffffffffffffffffffffffffffffff16815260200160018201548152602001600282015481526020016003820160009054906101000a900460ff16151515158152505092506000836000015173ffffffffffffffffffffffffffffffffffffffff1611151561235757600080fd5b600015158360600151151514151561236e57600080fd5b61237787612612565b905080836040015110156123915782604001519150612541565b60008560080160009054906101000a900473ffffffffffffffffffffffffffffffffffffffff1673ffffffffffffffffffffffffffffffffffffffff16141561243b57338560080160006101000a81548173ffffffffffffffffffffffffffffffffffffffff021916908373ffffffffffffffffffffffffffffffffffffffff160217905550808560090181905550846007015485600a0181905550808360400151039150612540565b846009015481111561251d57846009015485600a01819055508460080160009054906101000a900473ffffffffffffffffffffffffffffffffffffffff1673ffffffffffffffffffffffffffffffffffffffff166108fc86600901549081150290604051600060405180830381858888f193505050501580156124c2573d6000803e3d6000fd5b50338560080160006101000a81548173ffffffffffffffffffffffffffffffffffffffff021916908373ffffffffffffffffffffffffffffffffffffffff16021790555080856009018190555080836040015103915061253f565b84600a015481111561253a578085600a018190555080915061253e565b8091505b5b5b5b600185600d0160003373ffffffffffffffffffffffffffffffffffffffff1673ffffffffffffffffffffffffffffffffffffffff1681526020019081526020016000206000866000191660001916815260200190815260200160002060030160006101000a81548160ff0219169083151502179055506000821115612608573373ffffffffffffffffffffffffffffffffffffffff166108fc839081150290604051600060405180830381858888f19350505050158015612606573d6000803e3d6000fd5b505b5050505050505050565b6000606060008084925060009150600090505b82518110156128115760307f010000000000000000000000000000000000000000000000000000000000000002838281518110151561266057fe5b9060200101517f010000000000000000000000000000000000000000000000000000000000000090047f0100000000000000000000000000000000000000000000000000000000000000027effffffffffffffffffffffffffffffffffffffffffffffffffffffffffffff191610158015612778575060397f010000000000000000000000000000000000000000000000000000000000000002838281518110151561270857fe5b9060200101517f010000000000000000000000000000000000000000000000000000000000000090047f0100000000000000000000000000000000000000000000000000000000000000027effffffffffffffffffffffffffffffffffffffffffffffffffffffffffffff191611155b15612804576030838281518110151561278d57fe5b9060200101517f010000000000000000000000000000000000000000000000000000000000000090047f0100000000000000000000000000000000000000000000000000000000000000027f0100000000000000000000000000000000000000000000000000000000000000900403600a83020191505b8080600101915050612625565b819350505050919050565b6101c0604051908101604052806000815260200160608152602001606081526020016060815260200160608152602001600081526020016000815260200160008152602001600073ffffffffffffffffffffffffffffffffffffffff168152602001600081526020016000815260200160008152602001600060028111156128a057fe5b8152602001600060018111156128b257fe5b81525090565b828054600181600116156101000203166002900490600052602060002090601f016020900481019282601f106128f957805160ff1916838001178555612927565b82800160010185558215612927579182015b8281111561292657825182559160200191906001019061290b565b5b5090506129349190612989565b5090565b604051610b79806129af83390190565b608060405190810160405280600073ffffffffffffffffffffffffffffffffffffffff16815260200160008152602001600081526020016000151581525090565b6129ab91905b808211156129a757600081600090555060010161298f565b5090565b9056006080604052604051608080610b79833981018060405281019080805190602001909291908051906020019092919080519060200190929190805190602001909291905050508360008190555082600160006101000a81548173ffffffffffffffffffffffffffffffffffffffff021916908373ffffffffffffffffffffffffffffffffffffffff16021790555081600260006101000a81548173ffffffffffffffffffffffffffffffffffffffff021916908373ffffffffffffffffffffffffffffffffffffffff16021790555080600360006101000a81548173ffffffffffffffffffffffffffffffffffffffff021916908373ffffffffffffffffffffffffffffffffffffffff1602179055503460048190555050505050610a51806101286000396000f3006080604052600436106100af576000357c0100000000000000000000000000000000000000000000000000000000900463ffffffff16806308551a53146100b45780630bda4dbf1461010b57806358aad10b146101365780637150d8ae14610179578063a97d1b10146101d0578063aa8c217c14610213578063b8d08db21461023e578063c5ce391114610269578063d1a52e3014610294578063f3d25904146102c3578063fe25e00a14610399575b600080fd5b3480156100c057600080fd5b506100c96103f0565b604051808273ffffffffffffffffffffffffffffffffffffffff1673ffffffffffffffffffffffffffffffffffffffff16815260200191505060405180910390f35b34801561011757600080fd5b50610120610416565b6040518082815260200191505060405180910390f35b34801561014257600080fd5b50610177600480360381019080803573ffffffffffffffffffffffffffffffffffffffff16906020019092919050505061041c565b005b34801561018557600080fd5b5061018e61069a565b604051808273ffffffffffffffffffffffffffffffffffffffff1673ffffffffffffffffffffffffffffffffffffffff16815260200191505060405180910390f35b3480156101dc57600080fd5b50610211600480360381019080803573ffffffffffffffffffffffffffffffffffffffff1690602001909291905050506106c0565b005b34801561021f57600080fd5b5061022861093e565b6040518082815260200191505060405180910390f35b34801561024a57600080fd5b50610253610944565b6040518082815260200191505060405180910390f35b34801561027557600080fd5b5061027e61094a565b6040518082815260200191505060405180910390f35b3480156102a057600080fd5b506102a9610950565b604051808215151515815260200191505060405180910390f35b3480156102cf57600080fd5b506102d8610963565b604051808773ffffffffffffffffffffffffffffffffffffffff1673ffffffffffffffffffffffffffffffffffffffff1681526020018673ffffffffffffffffffffffffffffffffffffffff1673ffffffffffffffffffffffffffffffffffffffff1681526020018573ffffffffffffffffffffffffffffffffffffffff1673ffffffffffffffffffffffffffffffffffffffff16815260200184151515158152602001838152602001828152602001965050505050505060405180910390f35b3480156103a557600080fd5b506103ae6109ff565b604051808273ffffffffffffffffffffffffffffffffffffffff1673ffffffffffffffffffffffffffffffffffffffff16815260200191505060405180910390f35b600260009054906101000a900473ffffffffffffffffffffffffffffffffffffffff1681565b60095481565b600560009054906101000a900460ff1615151561043857600080fd5b600160009054906101000a900473ffffffffffffffffffffffffffffffffffffffff1673ffffffffffffffffffffffffffffffffffffffff168173ffffffffffffffffffffffffffffffffffffffff1614806104e15750600260009054906101000a900473ffffffffffffffffffffffffffffffffffffffff1673ffffffffffffffffffffffffffffffffffffffff168173ffffffffffffffffffffffffffffffffffffffff16145b806105395750600360009054906101000a900473ffffffffffffffffffffffffffffffffffffffff1673ffffffffffffffffffffffffffffffffffffffff168173ffffffffffffffffffffffffffffffffffffffff16145b8015610596575060011515600660008373ffffffffffffffffffffffffffffffffffffffff1673ffffffffffffffffffffffffffffffffffffffff16815260200190815260200160002060009054906101000a900460ff16151514155b15610605576001600660008373ffffffffffffffffffffffffffffffffffffffff1673ffffffffffffffffffffffffffffffffffffffff16815260200190815260200160002060006101000a81548160ff02191690831515021790555060016007600082825401925050819055505b6002600754141561069757600260009054906101000a900473ffffffffffffffffffffffffffffffffffffffff1673ffffffffffffffffffffffffffffffffffffffff166108fc6004549081150290604051600060405180830381858888f1935050505015801561067a573d6000803e3d6000fd5b506001600560006101000a81548160ff0219169083151502179055505b50565b600160009054906101000a900473ffffffffffffffffffffffffffffffffffffffff1681565b600560009054906101000a900460ff161515156106dc57600080fd5b600160009054906101000a900473ffffffffffffffffffffffffffffffffffffffff1673ffffffffffffffffffffffffffffffffffffffff168173ffffffffffffffffffffffffffffffffffffffff1614806107855750600260009054906101000a900473ffffffffffffffffffffffffffffffffffffffff1673ffffffffffffffffffffffffffffffffffffffff168173ffffffffffffffffffffffffffffffffffffffff16145b806107dd5750600360009054906101000a900473ffffffffffffffffffffffffffffffffffffffff1673ffffffffffffffffffffffffffffffffffffffff168173ffffffffffffffffffffffffffffffffffffffff16145b801561083a575060011515600860008373ffffffffffffffffffffffffffffffffffffffff1673ffffffffffffffffffffffffffffffffffffffff16815260200190815260200160002060009054906101000a900460ff16151514155b156108a9576001600860008373ffffffffffffffffffffffffffffffffffffffff1673ffffffffffffffffffffffffffffffffffffffff16815260200190815260200160002060006101000a81548160ff02191690831515021790555060016009600082825401925050819055505b6002600954141561093b57600160009054906101000a900473ffffffffffffffffffffffffffffffffffffffff1673ffffffffffffffffffffffffffffffffffffffff166108fc6004549081150290604051600060405180830381858888f1935050505015801561091e573d6000803e3d6000fd5b506001600560006101000a81548160ff0219169083151502179055505b50565b60045481565b60075481565b60005481565b600560009054906101000a900460ff1681565b600080600080600080600160009054906101000a900473ffffffffffffffffffffffffffffffffffffffff16600260009054906101000a900473ffffffffffffffffffffffffffffffffffffffff16600360009054906101000a900473ffffffffffffffffffffffffffffffffffffffff16600560009054906101000a900460ff16600754600954955095509550955095509550909192939495565b600360009054906101000a900473ffffffffffffffffffffffffffffffffffffffff16815600a165627a7a72305820537716bbc5edea85ec37d773bb1fd5da837e9d395b0e6f43df876c5c298d0be20029a165627a7a72305820d29765903d3bfd7f225fe8d526d7f9d45214fee376af54696d18de98f75880de0029",
  "source": "pragma solidity ^0.4.13;\n\nimport \"contracts/Escrow.sol\";\n\ncontract EcommerceStore {\n  enum ProductStatus { Open, Sold, Unsold }\n  enum ProductCondition { New, Used }\n\n  struct Bid {\n    address bidder;\n    uint productId;\n    uint value;\n    bool revealed;\n  }\n  \n  struct Product {\n    uint id;\n    string name;\n    string category;\n    string imageLink;\n    string descLink;\n    uint auctionStartTime;\n    uint auctionEndTime;\n    uint startPrice;\n    address highestBidder;\n    uint highestBid;\n    uint secondHighestBid;\n    uint totalBids;\n    ProductStatus status;\n    ProductCondition condition;\n    mapping (address => mapping (bytes32 => Bid)) bids;\n  }  \n  \n  mapping (address => mapping(uint => Product)) stores;\n  mapping (uint => address) productIdInStore;  \n  uint public productIndex;\n  mapping (uint => address) productEscrow;\n\n  function EcommerceStore() public {\n    productIndex = 0;\n  }\n\n  function addProductToStore(string _name, string _category, string _imageLink, \n    string _descLink, uint _auctionStartTime,\n    uint _auctionEndTime, uint _startPrice, uint _productCondition) public {\n    require (_auctionStartTime < _auctionEndTime);\n    productIndex += 1;\n    Product memory product = Product(productIndex, _name, _category, _imageLink, _descLink, _auctionStartTime, _auctionEndTime,\n                     _startPrice, 0, 0, 0, 0, ProductStatus.Open, ProductCondition(_productCondition));\n\n    stores[msg.sender][productIndex] = product;\n    productIdInStore[productIndex] = msg.sender;    \n  }  \n  \n  function getProduct(uint _productId) view public returns (uint, string, string, string, string, uint, uint, uint, ProductStatus, ProductCondition) {\n    Product memory product = stores[productIdInStore[_productId]][_productId];\n    return (product.id, product.name, product.category, product.imageLink, product.descLink, product.auctionStartTime,\n        product.auctionEndTime, product.startPrice, product.status, product.condition);\n  }   \n  \n  function bid(uint _productId, bytes32 _bid) payable public returns (bool) {\n    Product storage product = stores[productIdInStore[_productId]][_productId];    \n    require (now >= product.auctionStartTime); \n    require (now <= product.auctionEndTime);\n    require (msg.value > product.startPrice);\n    require (product.bids[msg.sender][_bid].bidder == 0);\n\n    product.bids[msg.sender][_bid] = Bid(msg.sender, _productId, msg.value, false);\n    product.totalBids += 1;\n    return true;\n  }  \n\n  function stringToUint(string s) pure private returns (uint) {\n    bytes memory b = bytes(s);\n    uint result = 0;\n\n    for (uint i = 0; i < b.length; i++) {\n      if (b[i] >= 48 && b[i] <= 57) {\n        result = result * 10 + (uint(b[i]) - 48);\n      }\n    }\n    return result;\n  }  \n  \n  function revealBid(uint _productId, string _amount, string _secret) public {\n    Product storage product = stores[productIdInStore[_productId]][_productId];\n    require (now > product.auctionEndTime);\n    bytes32 sealedBid = sha3(_amount, _secret);\n    Bid memory bidInfo = product.bids[msg.sender][sealedBid];\n\n    require (bidInfo.bidder > 0);\n    require (bidInfo.revealed == false);\n\n    uint refund;\n    uint amount = stringToUint(_amount);\n\n    if(bidInfo.value < amount) {\n      refund = bidInfo.value;\n    } else {\n      if (address(product.highestBidder) == 0) {\n        product.highestBidder = msg.sender;\n        product.highestBid = amount;\n        product.secondHighestBid = product.startPrice;\n        refund = bidInfo.value - amount;\n      } else {\n        if (amount > product.highestBid) {\n          product.secondHighestBid = product.highestBid;\n          product.highestBidder.transfer(product.highestBid);\n          product.highestBidder = msg.sender;\n          product.highestBid = amount;\n          refund = bidInfo.value - amount;\n        } else if (amount > product.secondHighestBid) {\n          product.secondHighestBid = amount;\n          refund = amount;\n        } else {\n          refund = amount;\n        }\n      }\n    }\n\n    product.bids[msg.sender][sealedBid].revealed = true;\n\n    if (refund > 0) {\n      msg.sender.transfer(refund);\n    }\n  }      \n  \n  function highestBidderInfo(uint _productId) view public returns (address, uint, uint) {\n    Product memory product = stores[productIdInStore[_productId]][_productId];\n    return (product.highestBidder, product.highestBid, product.secondHighestBid);\n  }\n\n  function totalBids(uint _productId) view public returns (uint) {\n    Product memory product = stores[productIdInStore[_productId]][_productId];\n    return product.totalBids;\n  }\n  \n  function finalizeAuction(uint _productId) public {\n    Product product = stores[productIdInStore[_productId]][_productId];\n    require(now > product.auctionEndTime);\n    require(product.status == ProductStatus.Open);\n    require(product.highestBidder != msg.sender);\n    require(productIdInStore[_productId] != msg.sender);\n   \n    if (product.totalBids == 0) {\n      product.status = ProductStatus.Unsold;\n    } else {\n      Escrow escrow = (new Escrow).value(product.secondHighestBid)(_productId, product.highestBidder, productIdInStore[_productId], msg.sender);\n      productEscrow[_productId] = address(escrow);\n      product.status = ProductStatus.Sold;\n      uint refund = product.highestBid - product.secondHighestBid;\n      product.highestBidder.transfer(refund);\n    }\n  }\n  \n  function releaseAmountToSeller(uint _productId) public {\n    Escrow(productEscrow[_productId]).releaseAmountToSeller(msg.sender);\n  }\n\n  function refundAmountToBuyer(uint _productId) public {\n    Escrow(productEscrow[_productId]).refundAmountToBuyer(msg.sender);\n  }  \n\n  function escrowInfo(uint _productId) view public returns (address, address, address, bool, uint, uint) {\n    return Escrow(productEscrow[_productId]).escrowInfo();\n  }  \n  \n}",
  "sourcePath": "/blockpro/repo/sprint-7-test/contracts/EcommerceStore.sol",
  "compiler": {
    "name": "solc",
    "version": "0.4.24+commit.e67f0147.Emscripten.clang"
  },
  "schemaVersion": "2.0.1",
  "updatedAt": "2019-05-07T02:40:31.200Z"
}